:020000040000FA
:0600000078EF02F012008F
:020006000000F8
:08000800D9CFE6FFE1CFD9FFDB
:100010000F0E831695169594959295908C948C92CC
:100020008C90C7EC00F0300EE66E97EC01F0E552D4
:10003000050EE66E41EC02F0E552300EE66E97ECEE
:1000400001F0E552010EE66E41EC02F0E552320E8F
:10005000E66E97EC01F0E55226EC02F00009FCE1B7
:1000600026EC02F00009FCE1FE0EDBCFE6FF97EC88
:1000700001F0E55226EC02F00009FCE1080EE66E04
:1000800097EC01F0E55226EC02F00009FCE10F0EBE
:10009000E66E97EC01F0E55226EC02F00009FCE177
:1000A000010EE66E97EC01F0E55226EC02F0000935
:1000B000FCE1040EE66E97EC01F0E55226EC02F04E
:1000C0000009FCE1800EE66EFCEC00F0E552E55222
:0600D000E7CFD9FF12008A
:0A00D600060EF66E000EF76E000E27
:1000E000F86E04010900F550866F0900F550876F1E
:1000F00003E1866701D03DD00900F550816F09000A
:10010000F550826F0900F550836F09000900F55022
:10011000E96E0900F550EA6E090009000900F55082
:10012000846F0900F550856F09000900F6CF88F447
:10013000F7CF89F4F8CF8AF481C4F6FF82C4F7FFC1
:1001400083C4F8FF0401845302E1855307E00900EA
:10015000F550EE6E8407F8E28507F9D788C4F6FFFC
:1001600089C4F7FF8AC4F8FF04018607000E875B85
:04017000BFD71200E3
:0C0174000000000000000000000000007F
:1001800000000000000000000000000012000F0E40
:10019000E66E58EC02F0E5521200050EE66E58ECE1
:1001A00002F0E5521200280EE66E04EC00F0E55273
:1001B00026EC02F00009FCE1280EE66E97EC01F057
:1001C000E55226EC02F00009FCE1060EE66E97EC23
:1001D00001F0E55226EC02F00009FCE1430EE66E68
:1001E000FCEC00F0E5520C0EE66E050EE66E4AECF5
:0801F00001F0E552E552FFD7D2
:0801F800D9CFE6FFE1CFD9FFEA
:100200000F0E95168316FE0EDB508009F00B83123D
:100210008C948C92BAEC00F08C80BAEC00F08C904C
:100220000F0E8316FE0EDB38F00BF00B8312BAECC8
:1002300000F08C80BAEC00F08C90F00E9512E55234
:06024000E7CFD9FF120018
:0A024600D9CFE6FFE1CFD9FF0F0E7C
:1002500095168316FE0EDB504009F00B83128C942A
:100260008C92BAEC00F08C80BAEC00F08C900F0EFF
:100270008316FE0EDB38F00BF00B8312BAEC00F0A5
:100280008C80BAEC00F08C90F00E9512E552E7CF1E
:04029000D9FF120080
:0C029400D9CFE6FFE1CFD9FFFD0EDBCF94
:1002A000F6FFFE0EDBCFF7FF0800F55016E026EC58
:1002B00002F00009FCE1FD0EDBCFF6FFFE0EDBCF06
:1002C000F7FF0800F550E66E71EC01F0E552FD0E07
:1002D000DB2AFE0EE3E3DB2AE1D7E552E7CFD9FFC5
:0202E00012000A
:0E02E200D9CFE6FFE1CFD9FF0F0E9516831698
:1002F000FE0EDB50F00B83128C828C94BAEC00F073
:100300008C80BAEC00F08C900F0E8316FE0EDB385A
:10031000F00BF00B8312BAEC00F08C80BAEC00F01A
:0E0320008C90F00E9512E552E7CFD9FF120037
:02032E00D9CF25
:10033000E6FFE1CFD9FF0F0E95168316FE0EDB50B8
:10034000F00B83128C948C92BAEC00F08C80BAEC97
:1003500000F08C900F0E8316FE0EDB38F00BF00BC6
:100360008312BAEC00F08C80BAEC00F08C90F00EA6
:0A0370009512E552E7CFD9FF120005
:06037A00D9CFE6FFE1CF40
:10038000D9FFFD0EDBCFE9FFFE0EDBCFEAFFEF501A
:1003900015E026EC02F00009FCE1FD0EDBCFE9FFE1
:1003A000FE0EDBCFEAFFEF50E66E71EC01F0E55296
:1003B000FD0EDB2AFE0EE5E3DB2AE3D7E552E7CFAD
:0403C000D9FF12004F
:0C03C400D9CFE6FFE1CFD9FFE6528C84D0
:1003D0008C82BAEC00F08C80BAEC00F0F00E831442
:1003E000DF6E8C90BAEC00F08C80BAEC00F08338B1
:1003F0000F0B0F0BDF128C908C928C94DF50E55218
:08040000E552E7CFD9FF12001D
:08040800D9CFE6FFE1CFD9FFD7
:10041000E6528C848C92BAEC00F08C80BAEC00F03E
:10042000F00E8314DF6E8C90BAEC00F08C80BAEC86
:1004300000F083380F0B0F0BDF128C908C947F0E23
:0C044000DF14E552E552E7CFD9FF1200AF
:04044C008C848C927E
:10045000BAEC00F08C80BAEC00F083AE09D08C903E
:10046000BAEC00F08C80BAEC00F08C908C94010C0B
:100470008C90BAEC00F08C80BAEC00F08C908C94EC
:02048000000C6E
:0E048200FF0EE350036EEF0E01D0F30EE76E97
:10049000E72E48EF02F00C0E026EE76AE72E4EEFF1
:1004A00002F0022E4DEF02F0032E46EF02F0120092
:1004B000FF0EE350036E480E01D04C0EE76EE72EA0
:1004C000FED7E76AE72EFED7032EF7D7000012000B
:1004D000000EF36E00EE00F0060E01D81200EA6086
:1004E00002D0EE6AFCD7F350E9601200EE6AFCD746
:1004F00013EE81F023EE81F0F86A019C6BEC00F0C2
:0C0500008CEC02F0D3EC00F0FBD71200F2
:04050C0048656C6C66
:080510006F20576F726C64004C
:020518001200CF
:020000040030CA
:0100010022DC
:010003000EEE
:010006008178
:00000001FF
