:0600000000F044EF04F0E3
:100600000048656C6C6F20576F726C640000FFFFD0
:10061000036E0F0E83160F0E951695949592959076
:100620008C948C928C9031EC04F0300ED3EC03F06F
:100630000F0E026E9E0EFFFFE82EFDD7022EFBD797
:10064000300ED3EC03F00F0E026E9E0EFFFFE82E6D
:10065000FDD7022EFBD7320ED3EC03F0F4EC03F0FF
:100660000009D8A4FBD7F4EC03F00009D8A4FBD709
:100670000350D3EC03F0F4EC03F00009D8A4FBD74B
:10068000080ED3EC03F0F4EC03F00009D8A4FBD778
:100690000F0ED3EC03F0F4EC03F00009D8A4FBD761
:1006A000010ED3EC03F0F4EC03F00009D8A4FBD75F
:1006B000040ED3EC03F0F4EC03F00009D8A4FBD74C
:1006C000800E90EC03F01200FFFFFFFF000E956E0E
:1006D000000E936E000E8A6E000E8C6E280E07ECD4
:1006E00003F0F4EC03F00009D8A4FBD7280ED3ECF8
:1006F00003F0F4EC03F00009D8A4FBD7060ED3EC0A
:1007000003F0F4EC03F00009D8A4FBD7430E90ECFF
:1007100003F0010E026E060E036E13EC04F0FFD719
:10072000FFFF016E0F0E95160F0E83160150800904
:10073000F00B83128C948C923CEC04F08C803CEC9B
:1007400004F08C900F0E83160138F00BF00B83121F
:100750003CEC04F08C803CEC04F08C90F00E951294
:100760001200FFFFFFFF016E0F0E95160F0E83168E
:100770000150F00B83128C828C943CEC04F08C8042
:100780003CEC04F08C900F0E83160138F00BF00B4C
:1007900083123CEC04F08C803CEC04F08C90F00E66
:1007A00095121200FFFFFFFF016E0F0E95160F0E40
:1007B00083160150F00B83128C948C923CEC04F065
:1007C0008C803CEC04F08C900F0E83160138F00BFB
:1007D000F00B83123CEC04F08C803CEC04F08C9029
:1007E000F00E95121200FFFFFFFF8C848C923CEC00
:1007F00004F08C803CEC04F083AE0AD08C903CEC8E
:1008000004F08C803CEC04F08C908C94010E09D0A8
:100810008C903CEC04F08C803CEC04F08C908C943C
:10082000000E1200FFFFFFFF10D0F4EC03F00009F0
:10083000D8A4FBD702C0F6FF03C0F7FF0800FFFFF4
:10084000F550B2EC03F0024A032A02C0F6FF03C0DF
:10085000F7FF0800FFFFF5500009D8B41200E5D7F4
:10086000FFFFFFFF0F0E016E9E0EFFFFE82EFDD76C
:10087000012EFBD71200FFFFFFFF040EFFFFE82E43
:10088000FDD700D01200FFFF000EF86E060EF76EC7
:06089000000165EF03F01A
:020000040020DA
:08000000FFFFFFFFFFFFFFFF00
:020000040030CA
:0E000000FF220F0EFF0181FF0FC00FE00F4027
:00000001FF
